:1000000027C14BC14AC149C148C147C146C145C1C9
:1000100044C143C142C12AC240C13FC13EC13DC1EA
:100020003CC13BC13AC10000000000000000002FAD
:10003000000000000700070000147F147F14002454
:100040002A7F2A1200626408132300364955225081
:1000500000000503000000001C22410000004122B6
:100060001C000014083E08140008083E08080000A0
:1000700000A0600000080808080800006060000098
:10008000002010080402003E5149453E0000427F16
:100090004000004261514946002141454B31001862
:1000A00014127F10002745454539003C4A49493024
:1000B00000017109050300364949493600064949DE
:1000C000291E0000363600000000563600000008E9
:1000D00014224100001414141414000041221408C6
:1000E00000020151090600324959513E007C1211AB
:1000F000127C007F49494936003E41414122007F40
:100100004141221C007F49494941007F09090901F9
:10011000003E4149497A007F0808087F0000417F7E
:100120004100002040413F01007F08142241007F30
:1001300040404040007F020C027F007F0408107F97
:10014000003E4141413E007F09090906003E415100
:10015000215E007F091929460046494949310001BD
:10016000017F0101003F4040403F001F2040201F11
:10017000003F4038403F00631408146300070870D4
:10018000080700615149454300007F414100005587
:100190002A552A55000041417F0000040201020453
:1001A0000040404040400000010204000020545440
:1001B0005478007F48444438003844444420003890
:1001C0004444487F00385454541800087E09010202
:1001D0000018A4A4A47C007F080404780000447DD7
:1001E0004000004080847D00007F10284400000013
:1001F000417F4000007C04180478007C08040478E7
:1002000000384444443800FC2424241800182424D2
:1002100018FC007C080404080048545454200004CE
:100220003F444020003C4040207C001C2040201CDB
:10023000003C4030403C004428102844001CA0A052
:10024000A07C004464544C44141414141414AA07DD
:1002500011241FBECFE5D4E0DEBFCDBF10E0A0E685
:10026000B0E0EEE1F1E102C005900D92A43DB107CE
:10027000D9F720E0A4EDB0E001C01D92A13EB20785
:10028000E1F712E0C0E5D2E003C02297FE0141D7BA
:10029000CE34D107D1F791D340C7B2CE10BC83E39F
:1002A00089B98AB188698AB908950F931F93CF934A
:1002B000DF93CDB7DEB760970FB6F894DEBF0FBE01
:1002C000CDBF8C01FC0111821282138214828081C5
:1002D000E80FF11D8AE281835FD6F801818189836D
:1002E00060E080E082D68DE0E0E6F0E0DE0112968C
:1002F00001900D928A95E1F7AE014F5F5F4F60E08C
:1003000080E0ECD6F8018281898361E080E06DD6DF
:100310008BE0EDE6F0E0DE01129601900D928A95F9
:10032000E1F7AE014F5F5F4F61E080E0D7D662E05A
:1003300080E05BD6F801838189838AE0E8E7F0E01A
:10034000DE01129601900D928A95E1F7AE014F5FA2
:100350005F4F62E080E0C2D663E080E046D6F801FD
:10036000848189838EE0E2E8F0E0DE01129601905C
:100370000D928A95E1F7AE014F5F5F4F63E080E039
:10038000ADD665E080E031D689E0E0E9F0E0DE015D
:10039000119601900D928A95E1F78091DE008130EF
:1003A00081F028F0823009F18330A9F027C086E07F
:1003B000E9E9F0E0DE01199601900D928A95E1F7E6
:1003C0001DC086E0EFE9F0E0DE01199601900D9284
:1003D0008A95E1F713C086E0EEEAF0E0DE011996B7
:1003E00001900D928A95E1F709C086E0E5EAF0E018
:1003F000DE01199601900D928A95E1F7AE014F5FEB
:100400005F4F65E080E06AD660960FB6F894DEBF75
:100410000FBECDBFDF91CF911F910F9108958091B5
:10042000D600823069F018F4813031F015C0843084
:1004300059F0883069F010C081E48093D5000895A8
:1004400082E48093D500089584E48093D5000895D4
:1004500083E48093D50008958FEF8093D5000895AD
:100460008091D9008F5F8093E00008951F920F92D2
:100470000FB60F9211240F931F932F933F934F9317
:100480005F936F937F938F939F93AF93BF93EF93FC
:10049000FF93CF93DF93CDB7DEB76097DEBFCDBFBD
:1004A0008CB18093D4008CB98091E000813009F444
:1004B00074C030F0823039F1833009F449C09DC0F6
:1004C0008091D400823441F0833421F0813409F0EA
:1004D00097C00DC0C5DF94C08091D900833020F44F
:1004E0008F5F8093D9008CC01092D90089C0809111
:1004F000D900882321F081508093D90081C083E006
:100500008093D9007DC08091D4008234C1F018F46A
:10051000813461F075C0833431F0843409F070C0E7
:100520001092E0007AC01092E00077C08091D8006D
:100530008A3008F019C18F5F8093D80061C0809124
:10054000D800882309F410C181508093D80058C086
:100550008091D4008234C1F018F4813461F050C02D
:10056000833431F0843409F04BC01092E00055C060
:100570001092E00052C08091D700823308F001C190
:100580008F5F8093D7003CC08091D700882309F407
:10059000F8C081508093D70033C08091D40082345A
:1005A000A1F018F4813431F02BC0833409F1843484
:1005B000C1F026C08091DF00833020F48F5F8093EC
:1005C000DF001EC01092DF001BC08091DF00882377
:1005D00021F081508093DF0013C083E08093DF001F
:1005E0000FC08091DE008093DF001092E00015C004
:1005F0008091DF008093DE0003C01092E0000DC008
:100600008091E000813009F4C9C038F0823009F4EB
:10061000ABC0833009F010C1B4C00AED10E0F8019E
:100620001082118212821382E091D900F0E0E75229
:10063000FF4F8AE28183B0D4F8018081898360E032
:1006400080E0D3D48DE0E0E6F0E0DE011296019088
:100650000D928A95E1F7AE014F5F5F4F60E080E059
:100660003DD58091DB00898361E080E0BED48BE0E2
:10067000EDE6F0E0DE01129601900D928A95E1F729
:10068000AE014F5F5F4F61E080E028D562E080E01F
:10069000ACD48091DC0089838AE0E8E7F0E0DE01F9
:1006A000129601900D928A95E1F7AE014F5F5F4F70
:1006B00062E080E013D563E080E097D48091DD00B4
:1006C00089838EE0E2E8F0E0DE01129601900D925F
:1006D0008A95E1F7AE014F5F5F4F63E080E0FED4A3
:1006E00065E080E082D489E0E0E9F0E0DE01119687
:1006F00001900D928A95E1F78091DE00813081F0C2
:1007000028F0823009F18330A9F027C086E0E9E9BA
:10071000F0E0DE01199601900D928A95E1F71DC077
:1007200086E0EFE9F0E0DE01199601900D928A95DE
:10073000E1F713C086E0EEEAF0E0DE0119960190E1
:100740000D928A95E1F709C086E0E5EAF0E0DE0166
:10075000199601900D928A95E1F7AE014F5F5F4FB8
:1007600065E080E0BBD40EC117D44EE650E060E0F7
:1007700080E0B4D463E08CE038D48091D8007ED49B
:1007800001C10AD44BEA50E060E080E0A7D463E006
:100790008CE02BD48091D70071D4F4C0FDD344EB0E
:1007A00050E060E080E09AD48091DF00813091F0E9
:1007B00028F0823049F0833099F017C04AE950E0C0
:1007C00062E08EE08BD411C046EA50E062E08EE039
:1007D00085D40BC040EA50E062E08EE07FD405C0D3
:1007E0004FEA50E062E08EE079D44FEB50E064E0F5
:1007F00080E074D48091DE00813091F028F0823066
:1008000049F0833099F0BEC04AE950E065E088E1E4
:1008100065D4B8C046EA50E065E088E15FD4B2C074
:1008200040EA50E065E088E159D4ACC04FEA50E0BE
:1008300065E088E153D4A6C00AED10E0F80110820B
:10084000118212821382E091D900F0E0E752FF4F4B
:100850008AE28183A1D3F8018081898360E080E00E
:10086000C4D38DE0E0E6F0E0DE01129601900D9237
:100870008A95E1F7AE014F5F5F4F60E080E02ED4D4
:100880008091DB00898361E080E0AFD38BE0EDE60F
:10089000F0E0DE01129601900D928A95E1F7AE012B
:1008A0004F5F5F4F61E080E019D462E080E09DD34C
:1008B0008091DC0089838AE0E8E7F0E0DE011296AF
:1008C00001900D928A95E1F7AE014F5F5F4F62E0B4
:1008D00080E004D463E080E088D38091DD008983E8
:1008E0008EE0E2E8F0E0DE01129601900D928A952A
:1008F000E1F7AE014F5F5F4F63E080E0EFD365E06B
:1009000080E073D389E0E0E9F0E0DE011196019028
:100910000D928A95E1F78091DE00813081F028F018
:10092000823009F18330A9F027C086E0E9E9F0E0E0
:10093000DE01199601900D928A95E1F71DC086E0BF
:10094000EFE9F0E0DE01199601900D928A95E1F74A
:1009500013C086E0EEEAF0E0DE01199601900D92F8
:100960008A95E1F709C086E0E5EAF0E0DE01199634
:1009700001900D928A95E1F7AE014F5F5F4F65E000
:1009800080E0ACD360960FB6F894DEBF0FBECDBF4B
:10099000DF91CF91FF91EF91BF91AF919F918F9197
:1009A0007F916F915F914F913F912F911F910F9187
:1009B0000F900FBE0F901F901895CF93DF93CDB778
:1009C000DEB760970FB6F894DEBF0FBECDBFC9D2B9
:1009D000F6D2E2D260E080E008D38FEF87BB18BA8E
:1009E0005DDC81E48CB978944EEC50E060E080E00E
:1009F00075D389ED90E059DC0AED10E00F2EF9ED8A
:100A0000EF2EF0E0FF2EF02D0F2EFAE23F2EF02D0C
:100A10000F2EFDE04F2EF02D0F2EFBED8F2EF0E070
:100A20009F2EF02D0F2EFBE05F2EF02D0F2EFCEDF4
:100A3000AF2EF0E0BF2EF02D0F2EFAE06F2EF02D2E
:100A40000F2EFDEDCF2EF0E0DF2EF02D0F2EFEE06D
:100A50007F2EF02D86B38093D6002FEF80E792E0B3
:100A6000215080409040E1F700C0000096B3809193
:100A7000D6009813EFCF86B3882361F386B3811134
:100A8000FDCFCDDC8091E000813009F472C030F000
:100A9000823029F1833009F447C09BC08091D50092
:100AA000823441F0833421F0813409F095C00CC0C8
:100AB000D7DC92C0D7018C91833018F48F5F8C9370
:100AC0008BC0F701108288C0D7018C91882319F060
:100AD00081508C9381C083E0F70180837DC0809139
:100AE000D5008234C1F018F4813461F075C08334CC
:100AF00031F0843409F070C01092E0007AC0109296
:100B0000E00077C08091D8008A3008F017C18F5F6D
:100B10008093D80061C08091D800882309F40EC169
:100B200081508093D80058C08091D5008234C1F0A4
:100B300018F4813461F050C0833431F0843409F00A
:100B40004BC01092E00055C01092E00052C080915E
:100B5000D700823308F0FFC08F5F8093D7003CC07E
:100B60008091D700882309F4F6C081508093D70084
:100B700033C08091D5008234A1F018F4813431F073
:100B80002BC0833409F18434C1F026C08091DF008A
:100B9000833020F48F5F8093DF001EC01092DF004F
:100BA0001BC08091DF00882321F081508093DF00FB
:100BB00013C083E08093DF000FC08091DE0080933C
:100BC000DF001092E00015C08091DF008093DE000E
:100BD00003C01092E0000DC08091E000813009F464
:100BE000C7C038F0823009F4A9C0833009F00EC1C3
:100BF000B2C0D8011D921D921D921C921397D7016D
:100C0000EC91F0E0E752FF4F3182C6D1F8018081CC
:100C1000898360E080E0E9D1E0E6F0E0DE01129651
:100C2000842D01900D928A95E1F7AE014F5F5F4FE1
:100C300060E080E053D2D4018C91898361E080E050
:100C4000D4D1EDE6F0E0DE011296852D01900D92F3
:100C50008A95E1F7AE014F5F5F4F61E080E03ED2E1
:100C600062E080E0C2D1F50180818983E8E7F0E0AD
:100C7000DE011296862D01900D928A95E1F7AE0164
:100C80004F5F5F4F62E080E029D263E080E0ADD14A
:100C9000D6018C918983E2E8F0E0DE011296872D7F
:100CA00001900D928A95E1F7AE014F5F5F4F63E0CF
:100CB00080E014D265E080E098D189E0E0E9F0E0DE
:100CC000DE01119601900D928A95E1F78091DE0088
:100CD000813081F028F0823009F18330A9F027C0FB
:100CE00086E0E9E9F0E0DE01199601900D928A951F
:100CF000E1F71DC086E0EFE9F0E0DE011996019012
:100D00000D928A95E1F713C086E0EEEAF0E0DE018D
:100D1000199601900D928A95E1F709C086E0E5EAFF
:100D2000F0E0DE01199601900D928A95E1F7AE018F
:100D30004F5F5F4F65E080E0D1D18CCE2DD14EE684
:100D400050E060E080E0CAD163E08CE04ED1809159
:100D5000D80094D17FCE20D14BEA50E060E080E013
:100D6000BDD163E08CE041D18091D70087D172CEB4
:100D700013D144EB50E060E080E0B0D18091DF001F
:100D8000813091F028F0823049F0833099F017C01B
:100D90004AE950E062E0872DA1D111C046EA50E057
:100DA00062E0872D9BD10BC040EA50E062E0872DC6
:100DB00095D105C04FEA50E062E0872D8FD14FEB0F
:100DC00050E064E080E08AD18091DE00813091F0D3
:100DD00028F0823049F0833099F03CCE4AE950E067
:100DE00065E088E17BD136CE46EA50E065E088E1F7
:100DF00075D130CE40EA50E065E088E16FD12ACE6F
:100E00004FEA50E065E088E169D124CEF801108214
:100E1000118212821382D701EC91F0E0E752FF4F6A
:100E20003182BAD0F8018081898360E080E0DDD032
:100E3000E0E6F0E0DE011296842D01900D928A9595
:100E4000E1F7AE014F5F5F4F60E080E047D1D40132
:100E50008C91898361E080E0C8D0EDE6F0E0DE01AE
:100E60001296852D01900D928A95E1F7AE014F5FA4
:100E70005F4F61E080E032D162E080E0B6D0F50102
:100E800080818983E8E7F0E0DE011296862D0190EB
:100E90000D928A95E1F7AE014F5F5F4F62E080E00F
:100EA0001DD163E080E0A1D0D6018C918983E2E876
:100EB000F0E0DE011296872D01900D928A95E1F700
:100EC000AE014F5F5F4F63E080E008D165E080E0F6
:100ED0008CD089E0E0E9F0E0DE01119601900D92FE
:100EE0008A95E1F78091DE00813081F028F0823030
:100EF00009F18330A9F027C086E0E9E9F0E0DE01DE
:100F0000199601900D928A95E1F71DC086E0EFE9F0
:100F1000F0E0DE01199601900D928A95E1F713C079
:100F200086E0EEEAF0E0DE01199601900D928A95D6
:100F3000E1F709C086E0E5EAF0E0DE0119960190EC
:100F40000D928A95E1F7AE014F5F5F4F65E080E05B
:100F5000C5D080CD1092D9001092D8001092D70041
:100F6000089581B38FEF81BB08959498811102C0D9
:100F700095980FC0959A0DC09798662314F4969A89
:100F800001C09698979A660F01970097A9F7949ACF
:100F9000089588E090E0F0CFCF93DF936CE080E09D
:100FA000E4DF60E880E0E1DFC8EFD1E060E081E00D
:100FB000DCDF21972097D1F7DF91CF9108959398A7
:100FC000939A61E280E0D1DF60EC80E0CEDF67E001
:100FD00080E0CBDF63E180E0C8DF60E280E0C5DF76
:100FE000DBDF6CE080E0C1DF0895CF93C62F682F70
:100FF000606880E0BADF6C2F606480E0B6DFCF917C
:101000000895EF92FF920F931F93CF93DF9300D039
:1010100000D000D0CDB7DEB7882319F1805290E020
:10102000FC01EE0FFF1F8E0F9F1FFC01EE0FFF1F35
:10103000EA5DFF4FDE0111967E0187E0E80EF11CAC
:1010400084918D933196AE15BF05D1F78E010F5F58
:101050001F4FF80161918F0181E087DF0E151F0599
:10106000C1F726960FB6F894DEBF0FBECDBFDF9155
:10107000CF911F910F91FF90EF900895CF93DF9341
:10108000C82F843640F089E2C89F812D11248295B3
:101090008F70805DB6DF8DECC89FD12D1124D69561
:1010A000D695D695D89F812D1124869586958695BF
:1010B000880F982F990F990F890F9D2F981B892FB3
:1010C000805D9FDFDD0F8D2F880F880FD80F8C2F4D
:1010D0008D1B805D96DFDF91CF910895CF93DF93D5
:1010E000EA0183DF888181110DC09E012F5F3F4F90
:1010F0008981811106C008C084DF89918111FCCFEC
:1011000003C0E9012196F8CFDF91CF910895EE0F4A
:0E111000FF1F0590F491E02D0994F894FFCF95
:10111E00204D4F44452053656C6563740020536524
:10112E007420537065656400205365742053746594
:10113E007000204D616E6970756C6174696F6E0020
:10114E00537461747573203A002053544F5000202D
:10115E004155544F00204D414E4900536574205364
:10116E005445500053657420537461747573004375
:10117E00757272656E742053746174757300686550
:04118E006C6C6F0016
:00000001FF
