:100000002DC147C146C145C1D2C243C142C141C150
:1000100040C13FC13EC13DC13CC13BC13AC139C1F4
:1000200038C137C136C135C134C133C132C131C124
:1000300030C12FC10000000000000000002F0000B0
:1000400000000700070000147F147F1400242A7F9B
:100050002A1200626408132300364955225000001A
:100060000503000000001C224100000041221C008A
:100070000014083E08140008083E0808000000A00C
:100080006000000808080808000060600000002008
:1000900010080402003E5149453E0000427F4000E6
:1000A000004261514946002141454B31001814126C
:1000B0007F10002745454539003C4A494930000139
:1000C0007109050300364949493600064949291E88
:1000D00000003636000000005636000000081422EA
:1000E00041000014141414140000412214080002EA
:1000F0000151090600324959513E007C1211127C0F
:10010000007F49494936003E41414122007F41413B
:10011000221C007F49494941007F09090901003E2D
:100120004149497A007F0808087F0000417F41006B
:10013000002040413F01007F08142241007F4040E1
:100140004040007F020C027F007F0408107F003EC9
:100150004141413E007F09090906003E4151215EAF
:10016000007F091929460046494949310001017FAC
:100170000101003F4040403F001F2040201F003F42
:100180004038403F006314081463000708700807F4
:1001900000615149454300007F41410000552A5507
:1001A0002A55000041417F00000402010204004082
:1001B00040404040000001020400002054545478A4
:1001C000007F4844443800384444442000384444C4
:1001D000487F00385454541800087E090102001862
:1001E000A4A4A47C007F080404780000447D40009F
:1001F000004080847D00007F102844000000417F83
:100200004000007C04180478007C0804047800385E
:100210004444443800FC242424180018242418FCE6
:10022000007C0804040800485454542000043F444F
:100230004020003C4040207C001C2040201C003C12
:100240004030403C004428102844001CA0A0A07C62
:10025000004464544C4414141414141411241FBE88
:10026000CFEFD2E0DEBFCDBF11E0A0E0B1E0E8E922
:10027000FBE002C005900D92A832B107D9F711E05A
:10028000A8E2B1E001C01D92A035B107E1F7A6D008
:1002900081C4B6CE8EBD0DB407FEFDCF0895882370
:1002A00011F4289801C0289A862FF4DF0895CF937F
:1002B000C62F682F606880E0F2DF6C2F606480E0FA
:1002C000EEDFCF910895CF93DF9380E06CE0E7DF1E
:1002D00080E060E8E4DFC8EFD1E081E060E0DFDFEC
:1002E0002197D9F7DF91CF9108958FEF84B980E5F9
:1002F0008CBD29988AE18A95F1F700C0299A80E09F
:1003000061E2CDDF80E060ECCADF80E066E0C7DF5D
:1003100080E063E1C4DF80E060E2C1DFD4DF80E041
:100320006CE0BDDF0895EF92FF920F931F93CF9380
:10033000DF9300D000D000D0CDB7DEB7805290E080
:10034000FC01EE0FFF1F8E0F9F1FFC01EE0FFF1F22
:10035000EC5CFF4F8E010F5F1F4F0F2EF7E0EF2E6B
:10036000FF24F02DEC0EFD1ED80184918D93319663
:10037000AE15BF05D1F7F80161918F0181E08FDFE4
:100380000E151F05C1F726960FB6F894DEBF0FBEF7
:10039000CDBFDF91CF911F910F91FF90EF90089506
:1003A000CF93DF93EA0183DF8881882329F02196A8
:1003B000BADF89918823E1F7DF91CF91089580E03A
:1003C00060E06DDF0895E8E6F0E080818260808380
:1003D000ECE6F0E0808181608083089586DF17B8C5
:1003E000F2DF78940F2EF0E0CF2EF1E0DF2EF02D2B
:1003F000C0E4D1E00F2EFEE0AF2EF1E0BF2EF02DD5
:100400000F2EFCE38F2E9924F02D05E111E00F2E25
:10041000F0E3EF2EF1E0FF2EF02D0F2EFCE16F2E1A
:10042000F1E07F2EF02D8091280190912901019615
:1004300090932901809328018FEF99E6A8E18150DC
:100440009040A040E1F700C000003DDF80912E0108
:1004500090912F019695879590932F0180932E016F
:1004600080E060E0A6019CDF00D000D000D0EDB7B6
:10047000FEB73196ADB7BEB71296DC93CE93119707
:10048000B382A28280912E0190912F019583848363
:10049000BCD0EDB7FEB736960FB6F894FEBF0FBED0
:1004A000EDBF8AE062E0AE017BDF80912E0190918A
:1004B0002F01889D9001899D300D989D300D11244C
:1004C00030932F0120932E0100D000D000D0EDB743
:1004D000FEB73196ADB7BEB71296DC93CE931197A7
:1004E000138302833583248390D0EDB7FEB736960D
:1004F0000FB6F894FEBF0FBEEDBF8AE063E0AE0119
:100500004FDF10922F0110922E01809128019091BF
:1005100029018C33910509F040C080912A01909106
:100520002B01A0912C01B0912D01B695A79597951F
:10053000879580932A0190932B01A0932C01B0936F
:100540002D012DB73EB7285030400FB6F8943EBF6E
:100550000FBE2DBF2F5F3F4FEDB7FEB7F282E18296
:10056000F9011383028384839583A683B7834DD0D7
:10057000109229011092280110922A0110922B0149
:1005800010922C0110922D012DB73EB7285F3F4FDE
:100590000FB6F8943EBF0FBE2DBF8AE064E0A30102
:1005A000FFDE8AE065E0A701FBDE09DF3CCF1F929A
:1005B0000F920FB60F9211248F939F93AF93BF9317
:1005C00080912E0190912F01019690932F0180939D
:1005D0002E0180912A0190912B01A0912C01B091C4
:1005E0002D010196A11DB11D80932A0190932B012D
:1005F000A0932C01B0932D01BF91AF919F918F914A
:100600000F900FBE0F901F901895AEE0B0E0EAE09B
:10061000F3E097C20D891E8986E08C831A830983D3
:100620008FEF9FE79E838D83AE01475E5F4FCE01C4
:1006300001966F89788D08D0EF81F885E00FF11F62
:1006400010822E96E4E099C2ADE0B0E0E9E2F3E07A
:100650006AC23C017D876C875A01FC0117821682B1
:10066000838181FFBBC12E010894411C511CF30101
:100670009381EC85FD8593FD859193FF8191FD87A5
:10068000EC87882309F4A6C1853241F493FD859156
:1006900093FF8191FD87EC87853221F490E0B301CF
:1006A000B8D1E5CFFF24EE2410E01032B0F48B3245
:1006B00069F08C3228F4803251F0833271F40BC02F
:1006C0008D3239F0803349F411602CC0126014600F
:1006D00029C0186027C0106125C017FD2EC0282F23
:1006E00020532A3098F416FF08C08F2D880FF82E5B
:1006F000FF0CFF0CF80EF20E15C08E2D880FE82EA1
:10070000EE0CEE0CE80EE20E10620CC08E3221F4FC
:1007100016FD60C1106406C08C3611F4106802C06A
:10072000883659F4EC85FD8593FD859193FF819181
:10073000FD87EC87882309F0B8CF982F9554933024
:1007400018F09052933038F424E030E0A20EB31E3B
:100750003FE339830FC0833631F0833781F083352F
:1007600009F056C021C0F5018081898322E030E084
:10077000A20EB31E21E0C22ED12C420113C092E082
:10078000292E312C2A0C3B1CF5018080918016FF0C
:1007900003C06F2D70E002C06FEF7FEFC4012ED158
:1007A0006C0151011F7714C082E0282E312C2A0CD5
:1007B0003B1CF5018080918016FF03C06F2D70E017
:1007C00002C06FEF7FEFC4010ED16C0110685101C0
:1007D00013FD1AC005C080E290E0B3011AD1EA947B
:1007E0008E2D90E0C816D906B0F30EC0F40117FDA7
:1007F000859117FF81914F0190E0B3010AD1E1107B
:10080000EA940894C108D108C114D10479F7DFC073
:10081000843611F0893649F5F50117FF07C080814C
:100820009181A281B38124E030E008C08081918170
:10083000AA2797FDA095BA2F22E030E0A20EB31EA2
:10084000012F0F76B7FF08C0B095A09590958195C0
:100850009F4FAF4FBF4F0068BC01CD01A2012AE0FE
:1008600030E003D1D82ED4183EC0853721F41F7E46
:100870002AE030E020C0197F8F36A9F0803720F4BD
:10088000883509F0A7C00BC0803721F0883709F000
:10089000A1C001C0106114FF09C0146007C014FF9B
:1008A00008C0166006C028E030E005C020E130E056
:1008B00002C020E132E0F50117FF07C060817181BD
:1008C0008281938144E050E006C06081718180E0C4
:1008D00090E042E050E0A40EB51EA201C6D0D82E92
:1008E000D418012F0F7706FF09C00E7FDF1430F4F4
:1008F00004FF06C002FD04C00F7E02C01D2D01C012
:100900001F2D802F90E004FF0CC0FE01ED0DF11DA6
:100910002081203311F4097E09C002FF06C01E5F4A
:1009200005C086789070009709F01F5F802E99248B
:1009300003FD11C000FF0CC0FD2C1E1548F4FE0C79
:10094000F11A1E2D05C080E290E0B30162D01F5F56
:100950001E15C8F304C01E1510F4E11A01C0EE24E0
:1009600084FE0EC080E390E0B30153D082FE1DC030
:1009700081FE03C088E590E010C088E790E00DC0DC
:10098000C40186789070009781F081FC02C080E2FB
:1009900001C08BE207FD8DE290E0B3013AD005C0C3
:1009A00080E390E0B30135D0FA94DF14C8F3DA9411
:1009B000F201ED0DF11D808190E0B3012AD0DD2020
:1009C000B1F705C080E290E0B30123D0EA94EE20B5
:1009D000C9F74DCEF3018681978102C08FEF9FEF5B
:1009E0002D96E2E1BCC0FC01059061507040011001
:1009F000D8F7809590958E0F9F1F0895FC01615048
:100A0000704001900110D8F7809590958E0F9F1F30
:100A100008950F931F93CF93DF938C01EB018B818C
:100A200081FF1BC082FF0DC02E813F818C819D8183
:100A30002817390764F4E881F9810193F983E88381
:100A400006C0E885F985802F0995009731F48E81DD
:100A50009F8101969F838E8302C00FEF1FEFC80115
:100A6000DF91CF911F910F910895FA01AA272830A5
:100A700051F1203181F1E8946F936E7F6E5F7F4F6B
:100A80008F4F9F4FAF4FB1E03ED0B4E03CD0670FE7
:100A9000781F891F9A1FA11D680F791F8A1F911D3A
:100AA000A11D6A0F711D811D911DA11D20D009F48A
:100AB00068943F912AE0269F11243019305D3193CC
:100AC000DEF6CF010895462F4770405D4193B3E0B5
:100AD0000FD0C9F7F6CF462F4F70405D4A3318F05C
:100AE000495D31FD4052419302D0A9F7EACFB4E00D
:100AF000A6959795879577956795BA95C9F70097C5
:100B00006105710508959B01AC010A2E0694579565
:100B1000479537952795BA95C9F7620F731F841FBC
:100B2000951FA01D08952F923F924F925F926F9252
:100B30007F928F929F92AF92BF92CF92DF92EF926D
:100B4000FF920F931F93CF93DF93CDB7DEB7CA1BEE
:100B5000DB0B0FB6F894DEBF0FBECDBF09942A8819
:100B6000398848885F846E847D848C849B84AA84C1
:100B7000B984C884DF80EE80FD800C811B81AA814E
:100B8000B981CE0FD11D0FB6F894DEBF0FBECDBF19
:080B9000ED010895F894FFCF78
:100B980043757272656E74205370656564002564D0
:100BA800207270730025642072706D004C6173743C
:080BB8002031206D696E000080
:00000001FF
