:100000001CC0C8C1F1C134C033C032C031C030C01F
:100010002FC02EC02DC02CC12BC02AC029C028C083
:1000200027C026C025C044C145C146C147C148C1FB
:1000300049C14AC14BC157C163C111241FBECFE59D
:10004000D4E0DEBFCDBF10E0A0E6B0E0E0E4F4E035
:1000500002C005900D92A836B107D9F720E0A8E6B6
:10006000B0E001C01D92AF37B207E1F7DFD0E6C1C3
:10007000C7CF4FD044D08031974209F454D03FD0FD
:100080008CB9089550D03BD0019609F442D037D0B6
:100090008CB9089510926000089581E0809360000B
:1000A000089558D0089582E080936000089583E019
:1000B0008093600029D0892B09F457D0089528EC4B
:1000C000829FC001112441D00895823018F085E448
:1000D0008CB9089537D00895282F30E0C901880FD2
:1000E000991F220F331F220F331F220F331F820F3E
:1000F000931F23D008958FEF87BB18BA089580917E
:100100006100909162000895809163009091640075
:100110000895809161009091620001969093620031
:100120008093610008958091610090916200019731
:100130009093620080936100089590936200809391
:1001400061000895809369000895909366008093FC
:100150006500089580916900882319F01092690064
:10016000089581E0809369000895809165009091E1
:10017000660090936400809363000895809161000D
:1001800090916200C09AEFECF7E03197F1F700C070
:100190000000C098009739F0FAE1FA95F1F700C035
:1001A00001970097C9F708958091610090916200CE
:1001B000C19AEFECF7E03197F1F700C00000C19869
:1001C000009739F0FAE1FA95F1F700C0019700972E
:1001D000C9F7089580916900882319F0813019F0DA
:1001E00004C0CCDF0895E0DF0895809168008F5F40
:1001F0008093680008958091630090916400892B3A
:1002000051F0E8DF80916300909164000197909332
:100210006400809363000895C098C19808958BB7D7
:1002200080648BBF8BB780688BBF089510BC83E35D
:1002300089B98AB188698AB9F2DF83E28CB9789486
:100240005ADF80916000813041F028F0823039F02F
:10025000833039F0F8CFE0DFF4CFBCDFF2CFBADF84
:10026000F0CFC9DF51DF892B61F710926000E9CF31
:100270001F920F920FB60F9211242F933F934F931B
:100280005F936F937F938F939F93AF93BF93EF93FE
:10029000FF938CB180936B0090916C00911140C0E2
:1002A00090E08A309105C8F5FC01ED5EFF4F09949E
:1002B000E0DE5FC0E7DE5DC0EDDE5BC0EEDE59C0B4
:1002C000F2DE57C0F4DE55C0ECDE53C081E080930F
:1002D0006C008DE690E090937E0080937D0087E037
:1002E00080936A0046C081E080936C008DE690E0C8
:1002F00090937E0080937D0088E080936A0039C0EF
:1003000081E080936C008DE690E090937E00809376
:100310007D0089E080936A002CC085E48CB929C0F7
:10032000E0917D00F0917E00CF01019690937E00D8
:1003300080937D0080916B00808380916C00815060
:1003400080936C00811115C080916A00883069F03B
:10035000893019F0873069F404C080916D00AFDEF8
:1003600008C080916D00B1DE04C080916D0090E006
:10037000B3DEFF91EF91BF91AF919F918F917F91EC
:100380006F915F914F913F912F910F900FBE0F9002
:100390001F9018951F920F920FB60F9211242F9352
:1003A0003F934F935F936F937F938F939F93AF93FD
:1003B000BF93EF93FF9380E0C5DE809160008130B2
:1003C00011F010926000FF91EF91BF91AF919F915A
:1003D0008F917F916F915F914F913F912F910F90EE
:1003E0000FBE0F901F9018951F920F920FB60F928D
:1003F00011242F933F934F935F936F937F938F932A
:100400009F93AF93BF93EF93FF9381E09BDE809127
:100410006000813011F010926000FF91EF91BF9168
:10042000AF919F918F917F916F915F914F913F918C
:100430002F910F900FBE0F901F901895F894FFCF3B
:08044000010A00E803E80300D3
:00000001FF
